:100000000C9434000C9451000C9451000C94510049
:100010000C9451000C94D6000C9483000C94510065
:100020000C9451000C9451000C9451000C9451000C
:100030000C947C010C9451000C9451000C945100D0
:100040000C9451000C9451000C9451000C945100EC
:100050000C9451000C9451000C9451000C945100DC
:100060000C9451000C94510011241FBECFEFD8E026
:10007000DEBFCDBF11E0A0E0B1E0E6E0F8E002C0F5
:1000800005900D92A637B107D9F711E0A6E7B1E0C8
:1000900001C01D92A03DB107E1F70E94BD020C9482
:1000A00001040C940000809179018823E1F42FB7BA
:1000B000F8942A9810928500109284008FEF9FEF99
:1000C00090938B0080938A0080E18093800082E08F
:1000D0008093810080916F00846080936F0081E045
:1000E000809379012FBF08959FB7F894EFE6F0E071
:1000F00080818B7F8083109280001092810010920B
:1001000079019FBF08951F920F920FB60F9211248D
:100110002F933F934F935F936F937F938F939F930F
:10012000AF93BF93EF93FF9380917901882329F0D8
:10013000AFE0B1E020E030E005C080917A01882393
:10014000B9F70EC08D919D91F901EE0FFF1FED5C87
:10015000FE4F918380832F5F3F4F2231310591F70E
:1001600080917601823021F480915701882321F01B
:1001700080917A01882321F00E94530010927A0125
:1001800081E08093570110927801FF91EF91BF9128
:10019000AF919F918F917F916F915F914F913F911F
:1001A0002F910F900FBE0F901F9018951F920F92D6
:1001B0000FB60F921124EF92FF920F931F932F937C
:1001C0003F934F935F936F937F938F939F93AF93DF
:1001D000BF93CF93DF93EF93FF93C0918400D091AF
:1001E000850080917601823079F4809179018823AD
:1001F00011F00E947400489B02C02A9A01C02A98FC
:10020000A8951092570161C08091870120EEE22EDF
:100210002CEFF22EEC0EFD1E0FEF19B1682F6127A7
:1002200051E041E0852F8623A9F1852F8123A42F5A
:10023000B0E039F0AA0FBB1FA857BE4FCD93DC9397
:1002400029C0FD01EE0FFF1FE857FE4F808191810D
:100250009701281B390B8DE02934380700F583E01E
:10026000283E3807E0F0A89580917701882339F07F
:10027000453029F4FD01E455FE4F008304C0FD0123
:10028000E455FE4F1082AA0FBB1FAD5CBE4F119606
:100290003C932E93550F4F3041F04E5FC3CF80916A
:1002A00078018F5F80937801F5CF1092570180918C
:1002B0007901882311F40E94530089B1181711F0B5
:1002C000812FABCF10938701DA9AFF91EF91DF91E5
:1002D000CF91BF91AF919F918F917F916F915F91DE
:1002E0004F913F912F911F910F91FF90EF900F90A1
:1002F0000FBE0F901F9018951F920F920FB60F927E
:1003000011242F933F934F938F939F93AF93BF935A
:10031000CF93DF93EF93FF9340917401A42FB0E04C
:10032000ED01C455DE4F8881FD01EE0FFF1F8932BC
:10033000B8F080918A0090918B00E15FFE4F2081A0
:100340003181820F931F90938B0080938A00A25477
:10035000BE4F8C918823A9F081E08093770111C072
:1003600080918A0090918B00ED5CFE4F208131815D
:10037000280F391F30938B0020938A0088818F5F6C
:100380008883842F8F5F80937401823110F01092E4
:100390007401FF91EF91DF91CF91BF91AF919F9148
:1003A0008F914F913F912F910F900FBE0F901F9003
:1003B0001895882311F481E003C0893008F088E0A3
:1003C000880F8F5FE82FF0E0EE0FFF1FED5CFE4F10
:1003D000208131818081918128173907C9F7205EFA
:1003E0003C4FC9010895AF92BF92CF92DF92EF9236
:1003F000FF920F931F93DF93CF93CDB7DEB7609734
:100400000FB6F894DEBF0FBECDBF80917601882372
:1004100001F552985A9A519A599885E3982F9A95CE
:10042000F1F799B19695969590959170599A8A950C
:10043000F1F74A999F5F599885E38A95F1F74A99B0
:1004400005C0923019F49093760103C081E0809347
:1004500076011AB88BB18FEF8BB98091760182301B
:1004600019F481E080936D0080917601813009F06C
:100470005CC08E010F5F1F4FAA24A394F1E1CF2E21
:10048000D12CCC0EDD1EE5E3BE2E71E0E72EF12C63
:1004900020E030E079B1542F572789F0F80141E08E
:1004A000842F852329F08081918101969183808317
:1004B0003296EC15FD0511F0440FF2CF472F8B2D2E
:1004C0008A95F1F72F5F3F4F83EC2035380711F7FE
:1004D000D80120E030E08D919C911197459770F004
:1004E000F901EE0FFF1FE154FE4FA082C701022E5B
:1004F00002C0880F991F0A94E2F7682B2F5F3F4FC5
:1005000012962830310539F7662329F080917A0157
:10051000882309F4BDCF80917A01882321F08FEFE1
:1005200080936D0002C060936D00809168008460CC
:1005300080936800229A88E10FB6F8948093600057
:10054000109260000FBEA895809160008861809332
:10055000600084E48093600060960FB6F894DEBF7C
:100560000FBECDBFCF91DF911F910F91FF90EF9004
:10057000DF90CF90BF90AF9008958F929F92BF92DF
:10058000CF92DF92EF92FF920F931F93CF93DF935F
:1005900004B600FC0BC004B601FC08C004B602FEA1
:1005A00005C014BE81E080937A0101C014BE0E9490
:1005B000F301209A219A229A14BC85E085BD16BCCD
:1005C00017BC18BC10926E007894299A4091820151
:1005D0005091830161E028E23FE080915701882338
:1005E00071F04F5F5F4F4C33510528F085B186277E
:1005F00085B940E050E0C9010197F1F7EECF409393
:1006000082015093830180917601823009F4A9C060
:1006100030917C0170917B01C0918001D09181016A
:10062000E0917E01F0917F0120917D0100E010E0DA
:10063000BB24B394B2EECB2EB4E0DB2EA8EDEA2EB1
:10064000AEE0FA2E2F5F2F3140F1632F6F5F353010
:10065000B8F4209151013091520180915101909153
:10066000520128173907A9F789E02036380710F416
:10067000715004C0215F3A4008F07F5F362F0CC0F4
:100680007B3F19F0753031F403C0299A00E002C0B5
:10069000299801E030E070E020E0112321F48091FE
:1006A0005701882331F04F5F5F4F4C33510580F184
:1006B00018C00023E1F480913D0190913E014F5F0D
:1006C0005F4FA0E0B0E0885E9340A040B040B69598
:1006D000A795979587954601881A990A481559054F
:1006E000B8F085B18B2585B940E050E011C080910C
:1006F0003D0190913E018154964010F0289A08C027
:1007000080913D0190913E018154964008F42898D3
:10071000809178018823A9F085E7C133D80728F0B4
:1007200010927801C0E0D0E00CC021968091780151
:10073000823038F010927801C0E0D0E0E0E0F0E0E4
:1007400002C0112351F063E1E938F60720F010E010
:10075000E0E0F0E002C0319611E0C7010197F1F747
:1007600071CF60918601209184013091850171E003
:10077000A8E2BFE080915701882359F04F5F5F4F97
:100780004C335105D0F185B1872785B940E050E061
:1007900034C02F5F3F4FE62FF0E0E85AFE4FE08174
:1007A000E230A1F0E33028F4EE2359F0E13011F506
:1007B00012C0E430D1F0E43098F0E530D9F460E0D4
:1007C0001CC085E02C3D3807C0F013C083E0283EF4
:1007D000380798F003C0283C310578F028980AC003
:1007E00081E02039380748F004C082E02E3E380707
:1007F00020F0289A6F5F20E030E0CD010197F1F7FB
:06080000B9CFF894FFCF10
:100806004172647550504D76322E332E31310020B0
:10081600039808200398082003E80320039808207B
:100826000306092003980820039808200398082047
:10083600030852200398082003980820037805200F
:100846000398082003060920039808200398082027
:100856000398082003085201000204010301050061
:10086600000000000000000204010301030105006E
:060876000000000011006B
:00000001FF
