:10000000A2C00000BCC00000BAC00000B8C0000020
:10001000B6C00000B4C00000B2C00000B0C0000014
:10002000AEC000005DC10000AAC00000E1C6000033
:10003000A5C60000FFC00000A2C000000DC2000065
:100040009EC000009CC000009AC0000098C0000044
:1000500096C0000094C0000092C00000A4C300003D
:100060008EC000008CC000008AC0000088C0000064
:1000700086C0000084C0000082C0000080C0000074
:100080007EC000007CC000007AC0000078C0000084
:1000900076C0000074C000001201100102000008C8
:1000A0004123100001000102DC0109023E000201AF
:1000B00000C0C8090400000102020100052400017B
:1000C0001004240206052406000107058203080027
:1000D000FF09040100020A000000070504024000B5
:1000E00001070583024000010403090432034100B3
:1000F00072006400750069006E006F002000280027
:100100007700770077002E006100720064007500B0
:1001100069006E006F002E0063006300290000007C
:100120002403410072006400750069006E006F00D6
:1001300020004D006500670061002000320035009E
:1001400036003000000011241FBECFEFD4E0DEBF28
:10015000CDBF11E0A0E0B1E0EEEDF4E102C005900A
:100160000D92A037B107D9F712E0A0E7B1E001C0C6
:100170001D92A93DB107E1F777D30C946D0A40CFEA
:100180009C01DC01AE57BF4FED91FC91119741915D
:100190001196FC93EE9380589F4FE817F90711F4DE
:1001A0002D933C939FB7F894F901EC57FF4F808152
:1001B000815080839FBF842F0895429A81E080936D
:1001C0009B0158980895429810929B01589A08955F
:1001D000809173018823E9F42FB7F8944698109220
:1001E0008500109284008FEF9FEF90938900809399
:1001F000880080E48093800082E080938100809179
:100200006F00826080936F0081E0809373012FBF45
:100210005D9808959FB7F894EFE6F0E080818D7FB8
:1002200080831092800010928100109273019FBF12
:100230005D9A08951F920F920FB60F9211242F937B
:100240003F934F935F936F937F938F939F93AF935E
:10025000BF93EF93FF9380917301882329F0AFE060
:10026000B1E020E030E005C0809174018823B9F747
:100270000EC08D919D91F901EE0FFF1FED5CFE4FB9
:10028000918380832F5F3F4F2231310591F7809119
:100290007001823021F480915701882321F08091F0
:1002A0007401882319F094DF1092740181E0809327
:1002B0005701109272018091730181115C98FF9136
:1002C000EF91BF91AF919F918F917F916F915F91CE
:1002D0004F913F912F910F900FBE0F901F90189547
:1002E0001F920F920FB60F921124DF92EF92FF929E
:1002F0000F931F932F933F934F935F936F937F932E
:100300008F939F93AF93BF93CF93DF93EF93FF931D
:10031000C0918400D0918500809170018230C9F431
:1003200080917301882309F075DF189B02C0469AFB
:1003300001C04698A89510925701809176018F5F71
:1003400080937601813808F46FC04D9A109276013F
:100350006BC0109176018091750120EEE22E2CEF9A
:10036000F22EEC0EFD1EDD24DA9403B1682F602717
:1003700051E041E0852F8623A9F1852F8023A42F0A
:10038000B0E039F0AA0FBB1FA958BE4FCD93DC9344
:1003900029C0FD01EE0FFF1FE958FE4F80819181BA
:1003A0009701281B390B8DE02934380700F583E0CD
:1003B000283E3807E0F0A89580917101882339F034
:1003C000453029F4FD01E156FE4FD08204C0FD0105
:1003D000E156FE4F1082AA0FBB1FAD5CBE4F1196B7
:1003E0003C932E93550F4F3049F04E5FC3CF809111
:1003F00072018F5F8093720110E0F4CF1092570169
:1004000080917301882309F4E3DE1F5F113410F03B
:100410004C9A10E083B1081711F0802FA6CF1093EB
:10042000760100937501D89AFF91EF91DF91CF91FA
:10043000BF91AF919F918F917F916F915F914F91FC
:100440003F912F911F910F91FF90EF90DF900F90B0
:100450000FBE0F901F9018951F920F920FB60F921C
:1004600011242F933F934F938F939F93AF93BF93F9
:10047000CF93DF93EF93FF9340916E01A42FB0E0F1
:10048000ED01C156DE4F8881FD01EE0FFF1F89325D
:10049000B8F08091880090918900E15FFE4F208143
:1004A0003181820F931F9093890080938800AF540D
:1004B000BE4F8C918823A9F081E08093710111C017
:1004C0008091880090918900ED5CFE4F2081318100
:1004D000280F391F309389002093880088818F5F0F
:1004E0008883842F8F5F80936E01823118F0109281
:1004F0006E014D9AFF91EF91DF91CF91BF91AF9136
:100500009F918F914F913F912F910F900FBE0F9020
:100510001F901895AF92BF92CF92DF92EF92FF9209
:100520000F931F93DF93CF93CDB7DEB760970FB6CE
:10053000F894DEBF0FBECDBF04B600FC0BC004B6FE
:1005400001FC08C004B602FE05C014BE81E0809321
:10055000740101C014BE3A9A80917001882301F59C
:1005600022982A9A219A299885E3982F9A95F1F74B
:1005700093B19695969590959170299A8A95F1F7F1
:100580001A999F5F299885E38A95F1F71A9905C012
:10059000923019F49093700103C081E08093700150
:1005A00014B885B18FEF85B9509A80919B0188234B
:1005B00011F0589801C0589A80917001823019F456
:1005C00081E080936B0080917001813009F05CC004
:1005D0008E010F5F1F4FAA24A394F1E1CF2ED12CDF
:1005E000CC0EDD1EE5E3BE2E71E0E72EF12C20E0FF
:1005F00030E073B1542F572789F0F80141E0842F80
:10060000852329F0808191810196918380833296A0
:10061000EC15FD0511F0440FF2CF472F8B2D8A9575
:10062000F1F72F5F3F4F83EC2035380711F7D801E2
:1006300020E030E08D919C911197459770F0F90181
:10064000EE0FFF1FEE54FE4FA082C701022E02C024
:10065000880F991F0A94E2F7682B2F5F3F4F12967D
:100660002830310539F7662329F0809174018823F9
:1006700009F4BDCF80917401882321F08FEF80931E
:100680006B0002C060936B00809168008160809372
:1006900068003E9A88E10FB6F8948093600010924B
:1006A00060000FBEA8958091600088618093600013
:1006B00084E48093600060960FB6F894DEBF0FBEAE
:1006C000CDBFCF91DF911F910F91FF90EF90DF9001
:1006D000CF90BF90AF900895DF92EF92FF920F936B
:1006E0001F93FC018489813019F0823021F405C008
:1006F00010E3D12E04C0DD2402C0B0E2DB2E8389DA
:10070000823011F488E0D82A8589873031F088302A
:1007100031F0863031F482E003C084E001C086E02D
:10072000D82A1092C9001092C8001092CA00E7841B
:10073000F0880189128980E0E81681EEF80680E0F1
:10074000080780E0180719F420E130E00FC0C80165
:10075000B701969587957795679560587B47814E49
:100760009F4FA801970197D6215030403093CD007C
:100770002093CC00D092CA0080E0E81681EEF80603
:1007800080E0080780E0180711F082E001C080E0F7
:100790008093C80088E98093C9001F910F91FF9052
:1007A000EF90DF9008951F920F920FB60F921124D1
:1007B0002F938F939F93EF93FF939091CE008EB3DF
:1007C0008430F1F4E0914302F09144029083E0918F
:1007D0004302F0914402CF0101969093440280932A
:1007E00043028354924021F483EC91E0928381830D
:1007F0009FB7F894809147028F5F809347029FBF15
:10080000FF91EF919F918F912F910F900FBE0F90BD
:100810001F901895FC01858580FF02C05F980895A0
:100820005F9A089588E591E0CCC588E591E07FC5A1
:1008300087E690E09093CD008093CC0086E0809393
:10084000CA001092C80088E18093C900539A5A9A4E
:100850008AB180638AB98BB180638BB984D284E01A
:1008600085BD5F9A579A08950F931F93CF93DF9397
:1008700051DEDEDF2FB7F89488E492E09093C9024E
:100880008093C8029093CB028093CA022FBF2FB7E8
:10089000F89483EC91E09093440280934302909308
:1008A0004602809345022FBF7894C8E4D2E003E06B
:1008B0008FB7F8949091CC028FBF903809F188E5FA
:1008C00091E0ABD497FD1CC0E091C802F091C90241
:1008D0008083E091C802F091C902CF010196909304
:1008E000C9028093C802885C924011F4D283C1830C
:1008F0009FB7F8948091CC028F5F8093CC029FBF0A
:100900008FB7F894109147028FBFA89902C0113693
:1009100078F1A89A80914702882361F05D9800934E
:100920009C0108C083EC91E02BDC682F88E591E006
:10093000DAD411501123B1F780919C01882351F032
:1009400080919C01815080939C0180919C0188231F
:1009500009F45D9A80919D01882351F080919D0159
:10096000815080939D0180919D01882309F45C9AB8
:100970008FB7F8949091CC028FBF992369F088E4E7
:1009800092E0FEDB982F8091C80085FFFCCF90930A
:10099000CE005C9800939D0188E591E095D42AD41F
:1009A00087CFDA01923049F0933061F09130F9F459
:1009B000E8E9F0E022E130E01EC0EAEAF0E02EE3F0
:1009C00030E019C0813049F0813018F0823079F47C
:1009D00008C0E8EEF0E0849107C0ECEEF0E084910E
:1009E00003C0E0E2F1E08491282F30E004C0E0E0B1
:1009F000F0E020E030E0ED93FC93C901089528E099
:100A000030E040E003C04F5F220F331F2817390743
:100A1000D0F3842F8295807F08958093E9008091A0
:100A2000EB0081608093EB001092ED006093EC008E
:100A30004093ED008091EE00881F8827881F08955D
:100A40001092F40090E09093E9001092F000109260
:100A5000E8001092ED008091EB008E7F8093EB0018
:100A60009F5F953081F708958091D10288238CF49F
:100A700003C08EB38823B1F08091E80082FFF9CFE4
:100A80008091E8008B778093E80008958EB38823E7
:100A900049F08091E80080FFF9CF8091E8008E77DF
:100AA0008093E800089594E68091EC0080FF05C0F3
:100AB0008091E80080FF05C023C08091E80082FD9E
:100AC0001FC08EB3882311F482E008958EB3853061
:100AD00011F483E008958091EB0085FF02C081E06E
:100AE00008958091E10082FFDFCF8091E1008B7F4C
:100AF0008093E100992311F484E008959150D4CFBC
:100B000080E008959C014091D7025091D802461789
:100B1000570718F4F90120E038C06115710511F08C
:100B2000AB01F8CF8091E8008E778093E80040E039
:100B300050E0F0CF8091E80083FF02C081E008958B
:100B40008091E80082FD2DC08EB3882381F18EB3A1
:100B5000853079F18091E80080FF17C09091F20014
:100B600006C081918093F100415050409F5F411534
:100B7000510511F09830A8F320E0983009F421E0F5
:100B80008091E8008E778093E8004115510591F639
:100B9000222381F606C08EB3882349F08EB38530B8
:100BA00041F08091E80082FFF6CF80E0089582E076
:100BB000089583E008959C014091D7025091D80296
:100BC0004617570710F490E03BC06115710511F00E
:100BD000AB01F9CF8091E8008E778093E80040E088
:100BE00050E0F1CF8091E80083FF02C081E00895DA
:100BF0008091E80082FD30C08EB3882399F18EB3D6
:100C0000853091F18091E80080FF1AC08091F20058
:100C100009C0F9012F5F3F4FE491E093F10041508B
:100C200050408F5F4115510511F0883090F390E0EE
:100C3000883009F491E08091E8008E778093E80095
:100C40004115510579F6992369F606C08EB38823BC
:100C500049F08EB3853041F08091E80082FFF6CFF5
:100C600080E0089582E0089583E008959C01611575
:100C7000710529F48091E8008B778093E800F901F1
:100C800020C08091E80083FF02C081E008958EB308
:100C9000882339F18EB3853031F18091E80082FFED
:100CA000F0CF06C08091F10081936150704021F037
:100CB0008091F2008823B1F78091E8008B778093D0
:100CC000E80061157105E9F606C08EB3882349F086
:100CD0008EB3853041F08091E80080FFF6CF80E050
:100CE000089582E0089583E0089542D044D01EBA6A
:100CF0001092CF021092CE021092CD0284E089BDF4
:100D000089B5826089BD09B400FEFDCF8091D8000D
:100D1000982F9F779093D80080688093D800809117
:100D200063008E7F809363008091D8008F7D8093D5
:100D3000D8008091E0008E7F8093E0008091E100F8
:100D40008E7F8093E1008091E20081608093E200D9
:100D50008091E100877F8093E1008091E2008860CC
:100D60008093E2000895C1DF81E08093D00208956E
:100D70001092E20008951092E10008951F920F92E0
:100D80000FB60F9211241F932F933F934F935F93AE
:100D90006F937F938F939F93AF93BF93EF93FF9343
:100DA000E9EEF0E0108117701082E0EFF0E0808152
:100DB000877F80837894C3D0F894A9EEB0E01C922A
:100DC000E0EFF0E08081886080831C93FF91EF91D9
:100DD000BF91AF919F918F917F916F915F914F9153
:100DE0003F912F911F910F900FBE0F901F9018955C
:100DF0001F920F920FB60F9211242F933F934F9390
:100E00005F936F937F938F939F93AF93BF93EF9372
:100E1000FF938091E10080FF1BC08091E20080FF82
:100E200017C08091E1008E7F8093E1008091E20005
:100E30008E7F8093E2008091E20080618093E200E7
:100E40008091D80080628093D80019BC1EBABBD9AB
:100E50008091E10084FF29C08091E20084FF25C0D9
:100E600084E089BD89B5826089BD09B400FEFDCFEB
:100E70008091D8008F7D8093D8008091E1008F7E93
:100E80008093E1008091E2008F7E8093E200809168
:100E9000E20081608093E2008091CF02882311F408
:100EA00081E001C084E08EBB88D98091E10083FF9E
:100EB00027C08091E20083FF23C08091E100877FFB
:100EC0008093E10082E08EBB1092CF028091E1001E
:100ED0008E7F8093E1008091E2008E7F8093E2001C
:100EE0008091E20080618093E200AADD80E060E012
:100EF00042E093DD8091F00088608093F00079D12A
:100F00008091E10082FF0AC08091E20082FF06C06A
:100F10008091E1008B7F8093E1006BD1FF91EF9195
:100F2000BF91AF919F918F917F916F915F914F9101
:100F30003F912F910F900FBE0F901F9018951F9308
:100F4000DF93CF93CDB7DEB7AC970FB6F894DEBF83
:100F50000FBECDBFE1EDF2E08091F100819322E080
:100F6000E93DF207C9F78091D1023091D2023530C4
:100F700009F487C0363040F43130C9F1313070F0B7
:100F8000333009F01DC133C0383009F4EFC03930B7
:100F900009F4FEC0363009F013C192C0803821F048
:100FA000823809F00DC108C09091CD028091CE0227
:100FB000882399F0926011C08091D5028770809348
:100FC000E9008091EB0090E025E0969587952A95C1
:100FD000E1F7982F91701092E9008091E800877FE7
:100FE0008093E8009093F1001092F100CAC088232A
:100FF00019F0823009F0E4C090E08F719070009792
:1010000021F0029709F0DDC00CC08091D30281303D
:1010100009F0D7C01092CE02333069F58093CE022A
:101020002AC08091D302882331F52091D502277000
:1010300009F4C7C02093E9008091EB0080FFC1C094
:10104000333021F48091EB00806213C08091EB007B
:1010500080618093EB0081E090E002C0880F991FCF
:101060002A95E2F78093EA001092EA008091EB0063
:1010700088608093EB001092E9008091E800877F00
:1010800083C0882309F09CC01091D3028091E800AE
:10109000877F8093E800E8DC04C08EB3882309F4DE
:1010A00090C08091E80080FFF8CF812F8F7711F4F6
:1010B00092E001C093E09EBB80688093E30081C012
:1010C0008058823008F07CC08091D3029091D40285
:1010D00023E08C3D920799F55FB7F894DE011596F1
:1010E0004EE020E030E061E2E42FF0E06093570052
:1010F000849120FF03C082958F704F5F982F9F705F
:10110000892F805D8A3308F0895F8C9311961C9239
:1011100011972F5F3F4F12962431310529F75FBF9A
:101120008AE28B8383E08C838091E800877F8093C1
:10113000E800CE0103966AE270E0E4DC11C0609141
:10114000D502AE014F5F5F4F2CDCBC010097C9F1A7
:101150008091E800877F8093E80089819A812BDD68
:101160008091E8008B778093E8002BC0803841F5B0
:101170008091E800877F8093E8008091CF02809380
:10118000F1008091E8008E778093E8006DDC19C053
:101190008823B1F49091D302923098F48091E800C2
:1011A000877F8093E8009093CF025EDC8091CF022E
:1011B000882311F483E001C084E08EBB36DB01C0DC
:1011C00031DB8091E80083FF0AC08091EB008062F0
:1011D0008093EB008091E800877F8093E800AC96D5
:1011E0000FB6F894DEBF0FBECDBFCF91DF911F9138
:1011F000089508951F938EB3882361F01091E9003C
:101200001092E9008091E80083FF01C098DE17701A
:101210001093E9001F9108950895FC018EB3843066
:1012200021F587859089A189B2890097A105B1052B
:10123000E1F085818093E9008091E80082FF15C08C
:101240008091F200882319F42FEF3FEF04C08091C2
:10125000F100282F30E08091F200882341F4809142
:10126000E8008B778093E80002C02FEF3FEFC901C1
:101270000895FC018EB3843011F587859089A1898A
:10128000B2890097A105B105D1F081818093E90071
:101290008091F2008823A9F09091E8008091E80005
:1012A0008E778093E80095FD0CC0FDDB982F882396
:1012B00049F48091E8008E778093E80003C092E0C3
:1012C00001C090E0892F0895FC018EB3843051F461
:1012D00087859089A189B2890097A105B10511F090
:1012E000CF01C7CF08951F93FC01162F8EB3843012
:1012F000D9F487859089A189B2890097A105B105A4
:1013000099F081818093E9008091E80085FD08C013
:101310008091E8008E778093E800C5DB882329F46C
:101320001093F10080E001C082E01F9108950F93B7
:101330001F93CF93DF93EC010D96FC0189E0DF0151
:101340001D928A95E9F72A813B8109818C81882346
:1013500011F410E001C014E0C90151DB182B126038
:10136000802F61E8412F59DB882329F12E813F81AD
:101370000D818885882311F410E001C014E0C901B3
:101380003EDB182B1260802F60E8412F46DB88235C
:1013900091F02A853B8509858C85882311F410E01E
:1013A00001C014E0C9012BDB182B1260802F61EC07
:1013B000412F33DB01C080E0DF91CF911F910F916E
:1013C0000895CF93DF93EC018091E80083FF60C024
:1013D000888190E02091D5023091D60228173907F4
:1013E00009F056C08091D202813261F0823220F43D
:1013F000803209F04DC019C0823269F1833209F0A0
:1014000047C038C08091D102813A09F041C0809133
:10141000E800877F8093E800CE010F9667E070E0D8
:1014200071DB8091E8008B7713C08091D10281320B
:1014300079F58091E800877F8093E800CE010F96D0
:1014400067E070E013DCCE0147D98091E8008E7729
:101450008093E8001DC08091D1028132C9F480914F
:10146000E800877F8093E8008091D3028D87CE01CA
:10147000D1D90DC08091D102813251F48091E80020
:10148000877F8093E800CE016091D302C5DEECDA5D
:10149000DF91CF910895A1E21A2EAA1BBB1BFD017B
:1014A0000DC0AA1FBB1FEE1FFF1FA217B307E40743
:1014B000F50720F0A21BB30BE40BF50B661F771F9B
:1014C000881F991F1A9469F760957095809590957B
:0E14D0009B01AC01BD01CF010895F894FFCF40
:1014DE004172647550504D76322E332E31310020CC
:1014EE00039808200398082003E803200398082097
:1014FE000306092003980820039808200398082063
:10150E00030852200398082003980820037805202A
:10151E000398082003060920039808200398082042
:10152E000398082003085201000340000004400005
:10153E000002080000000000000000000000110082
:00000001FF
